:020000040000FA
:10000000010A7200730074007500760077007800B2
:1000100079007A006400A40A380A580A350A320ABC
:0E002000D70A150B7E0B730A420A2F0A2C0A10
:1000580026050605000826040605000826050604E8
:1000680000082604060400082C0C06000F0C0200E9
:100078000E097A007700720073000008FA0C9A01E2
:100088004307470A480A500A86074B0A4C0A4E0A91
:1000980086044F0A86057A00010C3F001F02FA0108
:1000A800550A560A00000008200C94014E0C43061D
:1000B80095014307600A610A720A0F09050C2900B5
:1000C800910C2800CF0C2700E702680AE802680AAA
:1000D800E902680A6F0A0E097400750000087600C4
:1000E8008D0A000C8606010C370086077C0A7D0AFB
:1000F8007F0A8604800A86050D0C2A00FB0C29005D
:10010800E902840AEA02840A890A010C3F001F02F4
:10011800F60116023C007D0008023F0007023E007F
:100128001F02800F29001D02800F890043079E0AC5
:100138001C029E000306A10AA20A750A8605000889
:100148000C0911091009A605060237000C0C3F001E
:100158001F027701C40A0E09100974007500D20A3B
:100168000F09B10A1509B10A16090D09010C3C005D
:100178007D001C02F4010306B5021D02F501D20A36
:100188001702000F4306B80A040F4306B40A0C0FFF
:100198004306B60A040F4306AF0AD20AA604140996
:1001A8000E09A70A000A1C0C0600030C2700E70228
:1001B800DB0A000C8606010C3700040B820C2800B1
:1001C800DD0C2700E702E60AE802E60AEB0A000C63
:1001D8008606010C3700010C3C007D001C02F20170
:1001E8000306B3021D02F301E80C9201030C430657
:1001F80093014307000B010B040B0300720073000B
:10020800D7004306080B090BE20A820C2800DD0C14
:100218002700E7020D0BE8020D0B120B0C0C060071
:1002280000081209080231000702300076000B0CA2
:1002380096000307200B210B220B7D0B10021101E6
:100248004307270B280B510B7600040C9600030775
:100258002E0B2F0B300B430B0C0C2700000C280027
:100268001309820C2E00DD0C2D00ED02390BEE0275
:10027800390B3E0B010C3F001F02F601290B020C43
:100288002F00C70C2E00880C2D00ED02490BEE0242
:10029800490BEF02490B0000280B020C90011101D9
:1002A8004307570B580B780B140C2700000C280039
:1002B8001309820C2E00DD0C2D00ED02610BEE02FD
:1002C800610B660B140C2700000C28001309030CA3
:1002D8002F008A0C2E00550C2D00ED02710BEE023A
:1002E800710BEF02710B780B010C3F001F02F60136
:1002F8001B0B0008A606810B820B880B0C0C060052
:10030800A60467006800FE0B0C0C0600A605410C4D
:100318002A00EE0C2900E9028F0BEA028F0B00007D
:100328006B006C000D0C2A00FB0C2900E9029A0BEB
:10033800EA029A0B9F0B4606A20BA30BB80B0C0202
:100348003F000B023E001F02800F3C00800C9C0007
:100358004307B00B050C9E000306B30BB40BB80B98
:10036800010C3F001F02F9016606BB0BBC0BD10B49
:100378000C023F000B023E001F02800F3C00800C65
:100388009C004307C90B050C9E000307CC0BCD0B43
:10039800D10B010C3F001F02F901010C3C007D004C
:1003A8001C02EB010306AC021D02EC010C023F002B
:1003B8000B023E001F02800F3C00800C9C0043078C
:1003C800E70B0A0C9E000307EA0BEB0B960B0A0CD3
:1003D80099014307F00BF10BF80B7900A604010C07
:1003E8002700000C2800FE0B7900A604020C270049
:0603F800000C28000008C3
:021FFE00EA0FE8
:00000001FF
